{
  "contractName": "RockstarsNFTDev",
  "abi": [
    {
      "inputs": [
        {
          "internalType": "string",
          "name": "_name",
          "type": "string"
        },
        {
          "internalType": "string",
          "name": "_symbol",
          "type": "string"
        },
        {
          "internalType": "string",
          "name": "_initBaseURI",
          "type": "string"
        }
      ],
      "stateMutability": "nonpayable",
      "type": "constructor"
    },
    {
      "anonymous": false,
      "inputs": [
        {
          "indexed": true,
          "internalType": "address",
          "name": "owner",
          "type": "address"
        },
        {
          "indexed": true,
          "internalType": "address",
          "name": "approved",
          "type": "address"
        },
        {
          "indexed": true,
          "internalType": "uint256",
          "name": "tokenId",
          "type": "uint256"
        }
      ],
      "name": "Approval",
      "type": "event"
    },
    {
      "anonymous": false,
      "inputs": [
        {
          "indexed": true,
          "internalType": "address",
          "name": "owner",
          "type": "address"
        },
        {
          "indexed": true,
          "internalType": "address",
          "name": "operator",
          "type": "address"
        },
        {
          "indexed": false,
          "internalType": "bool",
          "name": "approved",
          "type": "bool"
        }
      ],
      "name": "ApprovalForAll",
      "type": "event"
    },
    {
      "anonymous": false,
      "inputs": [
        {
          "indexed": true,
          "internalType": "address",
          "name": "previousOwner",
          "type": "address"
        },
        {
          "indexed": true,
          "internalType": "address",
          "name": "newOwner",
          "type": "address"
        }
      ],
      "name": "OwnershipTransferred",
      "type": "event"
    },
    {
      "anonymous": false,
      "inputs": [
        {
          "indexed": true,
          "internalType": "address",
          "name": "from",
          "type": "address"
        },
        {
          "indexed": true,
          "internalType": "address",
          "name": "to",
          "type": "address"
        },
        {
          "indexed": true,
          "internalType": "uint256",
          "name": "tokenId",
          "type": "uint256"
        }
      ],
      "name": "Transfer",
      "type": "event"
    },
    {
      "inputs": [
        {
          "internalType": "address",
          "name": "",
          "type": "address"
        }
      ],
      "name": "allowlist",
      "outputs": [
        {
          "internalType": "bool",
          "name": "",
          "type": "bool"
        }
      ],
      "stateMutability": "view",
      "type": "function"
    },
    {
      "inputs": [
        {
          "internalType": "address",
          "name": "to",
          "type": "address"
        },
        {
          "internalType": "uint256",
          "name": "tokenId",
          "type": "uint256"
        }
      ],
      "name": "approve",
      "outputs": [],
      "stateMutability": "nonpayable",
      "type": "function"
    },
    {
      "inputs": [
        {
          "internalType": "address",
          "name": "owner",
          "type": "address"
        }
      ],
      "name": "balanceOf",
      "outputs": [
        {
          "internalType": "uint256",
          "name": "",
          "type": "uint256"
        }
      ],
      "stateMutability": "view",
      "type": "function"
    },
    {
      "inputs": [],
      "name": "baseExtension",
      "outputs": [
        {
          "internalType": "string",
          "name": "",
          "type": "string"
        }
      ],
      "stateMutability": "view",
      "type": "function"
    },
    {
      "inputs": [],
      "name": "baseURI",
      "outputs": [
        {
          "internalType": "string",
          "name": "",
          "type": "string"
        }
      ],
      "stateMutability": "view",
      "type": "function"
    },
    {
      "inputs": [],
      "name": "cost",
      "outputs": [
        {
          "internalType": "uint256",
          "name": "",
          "type": "uint256"
        }
      ],
      "stateMutability": "view",
      "type": "function"
    },
    {
      "inputs": [
        {
          "internalType": "uint256",
          "name": "tokenId",
          "type": "uint256"
        }
      ],
      "name": "getApproved",
      "outputs": [
        {
          "internalType": "address",
          "name": "",
          "type": "address"
        }
      ],
      "stateMutability": "view",
      "type": "function"
    },
    {
      "inputs": [
        {
          "internalType": "address",
          "name": "owner",
          "type": "address"
        },
        {
          "internalType": "address",
          "name": "operator",
          "type": "address"
        }
      ],
      "name": "isApprovedForAll",
      "outputs": [
        {
          "internalType": "bool",
          "name": "",
          "type": "bool"
        }
      ],
      "stateMutability": "view",
      "type": "function"
    },
    {
      "inputs": [],
      "name": "maxMintAmount",
      "outputs": [
        {
          "internalType": "uint256",
          "name": "",
          "type": "uint256"
        }
      ],
      "stateMutability": "view",
      "type": "function"
    },
    {
      "inputs": [],
      "name": "maxSupply",
      "outputs": [
        {
          "internalType": "uint256",
          "name": "",
          "type": "uint256"
        }
      ],
      "stateMutability": "view",
      "type": "function"
    },
    {
      "inputs": [],
      "name": "metaDataFolder",
      "outputs": [
        {
          "internalType": "string",
          "name": "",
          "type": "string"
        }
      ],
      "stateMutability": "view",
      "type": "function"
    },
    {
      "inputs": [],
      "name": "name",
      "outputs": [
        {
          "internalType": "string",
          "name": "",
          "type": "string"
        }
      ],
      "stateMutability": "view",
      "type": "function"
    },
    {
      "inputs": [],
      "name": "owner",
      "outputs": [
        {
          "internalType": "address",
          "name": "",
          "type": "address"
        }
      ],
      "stateMutability": "view",
      "type": "function"
    },
    {
      "inputs": [
        {
          "internalType": "uint256",
          "name": "tokenId",
          "type": "uint256"
        }
      ],
      "name": "ownerOf",
      "outputs": [
        {
          "internalType": "address",
          "name": "",
          "type": "address"
        }
      ],
      "stateMutability": "view",
      "type": "function"
    },
    {
      "inputs": [],
      "name": "paused",
      "outputs": [
        {
          "internalType": "bool",
          "name": "",
          "type": "bool"
        }
      ],
      "stateMutability": "view",
      "type": "function"
    },
    {
      "inputs": [],
      "name": "renounceOwnership",
      "outputs": [],
      "stateMutability": "nonpayable",
      "type": "function"
    },
    {
      "inputs": [
        {
          "internalType": "address",
          "name": "from",
          "type": "address"
        },
        {
          "internalType": "address",
          "name": "to",
          "type": "address"
        },
        {
          "internalType": "uint256",
          "name": "tokenId",
          "type": "uint256"
        }
      ],
      "name": "safeTransferFrom",
      "outputs": [],
      "stateMutability": "nonpayable",
      "type": "function"
    },
    {
      "inputs": [
        {
          "internalType": "address",
          "name": "from",
          "type": "address"
        },
        {
          "internalType": "address",
          "name": "to",
          "type": "address"
        },
        {
          "internalType": "uint256",
          "name": "tokenId",
          "type": "uint256"
        },
        {
          "internalType": "bytes",
          "name": "_data",
          "type": "bytes"
        }
      ],
      "name": "safeTransferFrom",
      "outputs": [],
      "stateMutability": "nonpayable",
      "type": "function"
    },
    {
      "inputs": [
        {
          "internalType": "address",
          "name": "operator",
          "type": "address"
        },
        {
          "internalType": "bool",
          "name": "approved",
          "type": "bool"
        }
      ],
      "name": "setApprovalForAll",
      "outputs": [],
      "stateMutability": "nonpayable",
      "type": "function"
    },
    {
      "inputs": [
        {
          "internalType": "bytes4",
          "name": "interfaceId",
          "type": "bytes4"
        }
      ],
      "name": "supportsInterface",
      "outputs": [
        {
          "internalType": "bool",
          "name": "",
          "type": "bool"
        }
      ],
      "stateMutability": "view",
      "type": "function"
    },
    {
      "inputs": [],
      "name": "symbol",
      "outputs": [
        {
          "internalType": "string",
          "name": "",
          "type": "string"
        }
      ],
      "stateMutability": "view",
      "type": "function"
    },
    {
      "inputs": [
        {
          "internalType": "uint256",
          "name": "index",
          "type": "uint256"
        }
      ],
      "name": "tokenByIndex",
      "outputs": [
        {
          "internalType": "uint256",
          "name": "",
          "type": "uint256"
        }
      ],
      "stateMutability": "view",
      "type": "function"
    },
    {
      "inputs": [
        {
          "internalType": "address",
          "name": "owner",
          "type": "address"
        },
        {
          "internalType": "uint256",
          "name": "index",
          "type": "uint256"
        }
      ],
      "name": "tokenOfOwnerByIndex",
      "outputs": [
        {
          "internalType": "uint256",
          "name": "",
          "type": "uint256"
        }
      ],
      "stateMutability": "view",
      "type": "function"
    },
    {
      "inputs": [],
      "name": "totalSupply",
      "outputs": [
        {
          "internalType": "uint256",
          "name": "",
          "type": "uint256"
        }
      ],
      "stateMutability": "view",
      "type": "function"
    },
    {
      "inputs": [
        {
          "internalType": "address",
          "name": "from",
          "type": "address"
        },
        {
          "internalType": "address",
          "name": "to",
          "type": "address"
        },
        {
          "internalType": "uint256",
          "name": "tokenId",
          "type": "uint256"
        }
      ],
      "name": "transferFrom",
      "outputs": [],
      "stateMutability": "nonpayable",
      "type": "function"
    },
    {
      "inputs": [
        {
          "internalType": "address",
          "name": "newOwner",
          "type": "address"
        }
      ],
      "name": "transferOwnership",
      "outputs": [],
      "stateMutability": "nonpayable",
      "type": "function"
    },
    {
      "inputs": [
        {
          "internalType": "address",
          "name": "_to",
          "type": "address"
        },
        {
          "internalType": "uint256",
          "name": "_mintAmount",
          "type": "uint256"
        }
      ],
      "name": "mint",
      "outputs": [],
      "stateMutability": "payable",
      "type": "function"
    },
    {
      "inputs": [
        {
          "internalType": "address",
          "name": "_owner",
          "type": "address"
        }
      ],
      "name": "walletOfOwner",
      "outputs": [
        {
          "internalType": "uint256[]",
          "name": "",
          "type": "uint256[]"
        }
      ],
      "stateMutability": "view",
      "type": "function"
    },
    {
      "inputs": [
        {
          "internalType": "uint256",
          "name": "tokenId",
          "type": "uint256"
        }
      ],
      "name": "tokenURI",
      "outputs": [
        {
          "internalType": "string",
          "name": "",
          "type": "string"
        }
      ],
      "stateMutability": "view",
      "type": "function"
    },
    {
      "inputs": [
        {
          "internalType": "uint256",
          "name": "_newCost",
          "type": "uint256"
        }
      ],
      "name": "setCost",
      "outputs": [],
      "stateMutability": "nonpayable",
      "type": "function"
    },
    {
      "inputs": [
        {
          "internalType": "uint256",
          "name": "_newMaxMintAmount",
          "type": "uint256"
        }
      ],
      "name": "setMaxMintAmount",
      "outputs": [],
      "stateMutability": "nonpayable",
      "type": "function"
    },
    {
      "inputs": [
        {
          "internalType": "string",
          "name": "_newBaseURI",
          "type": "string"
        }
      ],
      "name": "setBaseURI",
      "outputs": [],
      "stateMutability": "nonpayable",
      "type": "function"
    },
    {
      "inputs": [
        {
          "internalType": "string",
          "name": "_newBaseExtension",
          "type": "string"
        }
      ],
      "name": "setBaseExtension",
      "outputs": [],
      "stateMutability": "nonpayable",
      "type": "function"
    },
    {
      "inputs": [
        {
          "internalType": "bool",
          "name": "_state",
          "type": "bool"
        }
      ],
      "name": "pause",
      "outputs": [],
      "stateMutability": "nonpayable",
      "type": "function"
    },
    {
      "inputs": [
        {
          "internalType": "address[]",
          "name": "_arr",
          "type": "address[]"
        }
      ],
      "name": "allowlistUser",
      "outputs": [],
      "stateMutability": "nonpayable",
      "type": "function"
    },
    {
      "inputs": [
        {
          "internalType": "address[]",
          "name": "_arr",
          "type": "address[]"
        }
      ],
      "name": "removeAllowlistUser",
      "outputs": [],
      "stateMutability": "nonpayable",
      "type": "function"
    },
    {
      "inputs": [],
      "name": "withdraw",
      "outputs": [],
      "stateMutability": "payable",
      "type": "function"
    }
  ],
  "bytecode": "0x60806040526040518060400160405280600581526020017f2e6a736f6e000000000000000000000000000000000000000000000000000000815250600c90805190602001906200005192919062001013565b506040518060400160405280600981526020017f6d657461646174612f0000000000000000000000000000000000000000000000815250600d90805190602001906200009f92919062001013565b50670de0b6b3a7640000600e55612710600f5560056010556000601160006101000a81548160ff021916908315150217905550348015620000df57600080fd5b506040516200644638038062006446833981810160405281019062000105919062001178565b828281600090805190602001906200011f92919062001013565b5080600190805190602001906200013892919062001013565b5050506200015b6200014f6200018860201b60201c565b6200019060201b60201c565b6200016c816200025660201b60201c565b6200017f3360056200030160201b60201c565b50505062001a6d565b600033905090565b6000600a60009054906101000a900473ffffffffffffffffffffffffffffffffffffffff16905081600a60006101000a81548173ffffffffffffffffffffffffffffffffffffffff021916908373ffffffffffffffffffffffffffffffffffffffff1602179055508173ffffffffffffffffffffffffffffffffffffffff168173ffffffffffffffffffffffffffffffffffffffff167f8be0079c531659141344cd1fd0a4f28419497f9722a3daafe3b4186f6b6457e060405160405180910390a35050565b620002666200018860201b60201c565b73ffffffffffffffffffffffffffffffffffffffff166200028c6200058860201b60201c565b73ffffffffffffffffffffffffffffffffffffffff1614620002e5576040517f08c379a0000000000000000000000000000000000000000000000000000000008152600401620002dc906200167c565b60405180910390fd5b80600b9080519060200190620002fd92919062001013565b5050565b600062000313620005b260201b60201c565b9050601160009054906101000a900460ff161562000368576040517f08c379a00000000000000000000000000000000000000000000000000000000081526004016200035f90620016e2565b60405180910390fd5b60008211620003ae576040517f08c379a0000000000000000000000000000000000000000000000000000000008152600401620003a590620016c0565b60405180910390fd5b601054821115620003f6576040517f08c379a0000000000000000000000000000000000000000000000000000000008152600401620003ed90620015f4565b60405180910390fd5b600f54828262000407919062001798565b11156200044b576040517f08c379a0000000000000000000000000000000000000000000000000000000008152600401620004429062001638565b60405180910390fd5b6200045b6200058860201b60201c565b73ffffffffffffffffffffffffffffffffffffffff163373ffffffffffffffffffffffffffffffffffffffff16146200053e5760011515601260003373ffffffffffffffffffffffffffffffffffffffff1673ffffffffffffffffffffffffffffffffffffffff16815260200190815260200160002060009054906101000a900460ff161515146200053d5781600e54620004f79190620017f5565b3410156200053c576040517f08c379a000000000000000000000000000000000000000000000000000000000815260040162000533906200169e565b60405180910390fd5b5b5b6000600190505b82811162000582576200056c84828462000560919062001798565b620005bf60201b60201c565b8080620005799062001967565b91505062000545565b50505050565b6000600a60009054906101000a900473ffffffffffffffffffffffffffffffffffffffff16905090565b6000600880549050905090565b620005e1828260405180602001604052806000815250620005e560201b60201c565b5050565b620005f783836200065360201b60201c565b6200060c60008484846200083960201b60201c565b6200064e576040517f08c379a00000000000000000000000000000000000000000000000000000000081526004016200064590620015b0565b60405180910390fd5b505050565b600073ffffffffffffffffffffffffffffffffffffffff168273ffffffffffffffffffffffffffffffffffffffff161415620006c6576040517f08c379a0000000000000000000000000000000000000000000000000000000008152600401620006bd906200165a565b60405180910390fd5b620006d781620009f360201b60201c565b156200071a576040517f08c379a00000000000000000000000000000000000000000000000000000000081526004016200071190620015d2565b60405180910390fd5b6200072e6000838362000a5f60201b60201c565b6001600360008473ffffffffffffffffffffffffffffffffffffffff1673ffffffffffffffffffffffffffffffffffffffff168152602001908152602001600020600082825462000780919062001798565b92505081905550816002600083815260200190815260200160002060006101000a81548173ffffffffffffffffffffffffffffffffffffffff021916908373ffffffffffffffffffffffffffffffffffffffff160217905550808273ffffffffffffffffffffffffffffffffffffffff16600073ffffffffffffffffffffffffffffffffffffffff167fddf252ad1be2c89b69c2b068fc378daa952ba7f163c4a11628f55a4df523b3ef60405160405180910390a45050565b6000620008678473ffffffffffffffffffffffffffffffffffffffff1662000ba660201b62001f8f1760201c565b15620009e6578373ffffffffffffffffffffffffffffffffffffffff1663150b7a02620008996200018860201b60201c565b8786866040518563ffffffff1660e01b8152600401620008bd94939291906200155c565b602060405180830381600087803b158015620008d857600080fd5b505af19250505080156200090c57506040513d601f19601f820116820180604052508101906200090991906200114c565b60015b62000995573d80600081146200093f576040519150601f19603f3d011682016040523d82523d6000602084013e62000944565b606091505b506000815114156200098d576040517f08c379a00000000000000000000000000000000000000000000000000000000081526004016200098490620015b0565b60405180910390fd5b805181602001fd5b63150b7a0260e01b7bffffffffffffffffffffffffffffffffffffffffffffffffffffffff1916817bffffffffffffffffffffffffffffffffffffffffffffffffffffffff191614915050620009eb565b600190505b949350505050565b60008073ffffffffffffffffffffffffffffffffffffffff166002600084815260200190815260200160002060009054906101000a900473ffffffffffffffffffffffffffffffffffffffff1673ffffffffffffffffffffffffffffffffffffffff1614159050919050565b62000a7783838362000bb960201b62001fa21760201c565b600073ffffffffffffffffffffffffffffffffffffffff168373ffffffffffffffffffffffffffffffffffffffff16141562000ac45762000abe8162000bbe60201b60201c565b62000b0c565b8173ffffffffffffffffffffffffffffffffffffffff168373ffffffffffffffffffffffffffffffffffffffff161462000b0b5762000b0a838262000c0760201b60201c565b5b5b600073ffffffffffffffffffffffffffffffffffffffff168273ffffffffffffffffffffffffffffffffffffffff16141562000b595762000b538162000d8460201b60201c565b62000ba1565b8273ffffffffffffffffffffffffffffffffffffffff168273ffffffffffffffffffffffffffffffffffffffff161462000ba05762000b9f828262000ecc60201b60201c565b5b5b505050565b600080823b905060008111915050919050565b505050565b6008805490506009600083815260200190815260200160002081905550600881908060018154018082558091505060019003906000526020600020016000909190919091505550565b6000600162000c218462000f5860201b620015311760201c565b62000c2d919062001856565b905060006007600084815260200190815260200160002054905081811462000d13576000600660008673ffffffffffffffffffffffffffffffffffffffff1673ffffffffffffffffffffffffffffffffffffffff168152602001908152602001600020600084815260200190815260200160002054905080600660008773ffffffffffffffffffffffffffffffffffffffff1673ffffffffffffffffffffffffffffffffffffffff168152602001908152602001600020600084815260200190815260200160002081905550816007600083815260200190815260200160002081905550505b6007600084815260200190815260200160002060009055600660008573ffffffffffffffffffffffffffffffffffffffff1673ffffffffffffffffffffffffffffffffffffffff16815260200190815260200160002060008381526020019081526020016000206000905550505050565b6000600160088054905062000d9a919062001856565b905060006009600084815260200190815260200160002054905060006008838154811062000df1577f4e487b7100000000000000000000000000000000000000000000000000000000600052603260045260246000fd5b90600052602060002001549050806008838154811062000e3a577f4e487b7100000000000000000000000000000000000000000000000000000000600052603260045260246000fd5b90600052602060002001819055508160096000838152602001908152602001600020819055506009600085815260200190815260200160002060009055600880548062000eb0577f4e487b7100000000000000000000000000000000000000000000000000000000600052603160045260246000fd5b6001900381819060005260206000200160009055905550505050565b600062000ee48362000f5860201b620015311760201c565b905081600660008573ffffffffffffffffffffffffffffffffffffffff1673ffffffffffffffffffffffffffffffffffffffff168152602001908152602001600020600083815260200190815260200160002081905550806007600084815260200190815260200160002081905550505050565b60008073ffffffffffffffffffffffffffffffffffffffff168273ffffffffffffffffffffffffffffffffffffffff16141562000fcc576040517f08c379a000000000000000000000000000000000000000000000000000000000815260040162000fc39062001616565b60405180910390fd5b600360008373ffffffffffffffffffffffffffffffffffffffff1673ffffffffffffffffffffffffffffffffffffffff168152602001908152602001600020549050919050565b828054620010219062001931565b90600052602060002090601f01602090048101928262001045576000855562001091565b82601f106200106057805160ff191683800117855562001091565b8280016001018555821562001091579182015b828111156200109057825182559160200191906001019062001073565b5b509050620010a09190620010a4565b5090565b5b80821115620010bf576000816000905550600101620010a5565b5090565b6000620010da620010d48462001738565b62001704565b905082815260208101848484011115620010f357600080fd5b62001100848285620018fb565b509392505050565b600081519050620011198162001a53565b92915050565b600082601f8301126200113157600080fd5b815162001143848260208601620010c3565b91505092915050565b6000602082840312156200115f57600080fd5b60006200116f8482850162001108565b91505092915050565b6000806000606084860312156200118e57600080fd5b600084015167ffffffffffffffff811115620011a957600080fd5b620011b7868287016200111f565b935050602084015167ffffffffffffffff811115620011d557600080fd5b620011e3868287016200111f565b925050604084015167ffffffffffffffff8111156200120157600080fd5b6200120f868287016200111f565b9150509250925092565b620012248162001891565b82525050565b600062001237826200176b565b62001243818562001776565b935062001255818560208601620018fb565b620012608162001a42565b840191505092915050565b60006200127a60328362001787565b91507f4552433732313a207472616e7366657220746f206e6f6e20455243373231526560008301527f63656976657220696d706c656d656e74657200000000000000000000000000006020830152604082019050919050565b6000620012e2601c8362001787565b91507f4552433732313a20746f6b656e20616c7265616479206d696e746564000000006000830152602082019050919050565b600062001324601f8362001787565b91507f43616e6e6f74206d696e74206d6f7265207468616e2035206174206f6e6365006000830152602082019050919050565b600062001366602a8362001787565b91507f4552433732313a2062616c616e636520717565727920666f7220746865207a6560008301527f726f2061646472657373000000000000000000000000000000000000000000006020830152604082019050919050565b6000620013ce601e8362001787565b91507f4d696e7420616d6f756e742065786365656473206d617820737570706c7900006000830152602082019050919050565b60006200141060208362001787565b91507f4552433732313a206d696e7420746f20746865207a65726f20616464726573736000830152602082019050919050565b60006200145260208362001787565b91507f4f776e61626c653a2063616c6c6572206973206e6f7420746865206f776e65726000830152602082019050919050565b60006200149460138362001787565b91507f4e6f7420656e6f756768204554482073656e74000000000000000000000000006000830152602082019050919050565b6000620014d660148362001787565b91507f4d757374206d696e74206174206c6561737420310000000000000000000000006000830152602082019050919050565b60006200151860128362001787565b91507f436f6e74726163742069732070617573656400000000000000000000000000006000830152602082019050919050565b6200155681620018f1565b82525050565b600060808201905062001573600083018762001219565b62001582602083018662001219565b6200159160408301856200154b565b8181036060830152620015a581846200122a565b905095945050505050565b60006020820190508181036000830152620015cb816200126b565b9050919050565b60006020820190508181036000830152620015ed81620012d3565b9050919050565b600060208201905081810360008301526200160f8162001315565b9050919050565b60006020820190508181036000830152620016318162001357565b9050919050565b600060208201905081810360008301526200165381620013bf565b9050919050565b60006020820190508181036000830152620016758162001401565b9050919050565b60006020820190508181036000830152620016978162001443565b9050919050565b60006020820190508181036000830152620016b98162001485565b9050919050565b60006020820190508181036000830152620016db81620014c7565b9050919050565b60006020820190508181036000830152620016fd8162001509565b9050919050565b6000604051905081810181811067ffffffffffffffff821117156200172e576200172d62001a13565b5b8060405250919050565b600067ffffffffffffffff82111562001756576200175562001a13565b5b601f19601f8301169050602081019050919050565b600081519050919050565b600082825260208201905092915050565b600082825260208201905092915050565b6000620017a582620018f1565b9150620017b283620018f1565b9250827fffffffffffffffffffffffffffffffffffffffffffffffffffffffffffffffff03821115620017ea57620017e9620019b5565b5b828201905092915050565b60006200180282620018f1565b91506200180f83620018f1565b9250817fffffffffffffffffffffffffffffffffffffffffffffffffffffffffffffffff04831182151516156200184b576200184a620019b5565b5b828202905092915050565b60006200186382620018f1565b91506200187083620018f1565b925082821015620018865762001885620019b5565b5b828203905092915050565b60006200189e82620018d1565b9050919050565b60007fffffffff0000000000000000000000000000000000000000000000000000000082169050919050565b600073ffffffffffffffffffffffffffffffffffffffff82169050919050565b6000819050919050565b60005b838110156200191b578082015181840152602081019050620018fe565b838111156200192b576000848401525b50505050565b600060028204905060018216806200194a57607f821691505b60208210811415620019615762001960620019e4565b5b50919050565b60006200197482620018f1565b91507fffffffffffffffffffffffffffffffffffffffffffffffffffffffffffffffff821415620019aa57620019a9620019b5565b5b600182019050919050565b7f4e487b7100000000000000000000000000000000000000000000000000000000600052601160045260246000fd5b7f4e487b7100000000000000000000000000000000000000000000000000000000600052602260045260246000fd5b7f4e487b7100000000000000000000000000000000000000000000000000000000600052604160045260246000fd5b6000601f19601f8301169050919050565b62001a5e81620018a5565b811462001a6a57600080fd5b50565b6149c98062001a7d6000396000f3fe60806040526004361061021a5760003560e01c80635c975abb11610123578063a7cd52cb116100ab578063d5abeb011161006f578063d5abeb01146107c9578063da3ef23f146107f4578063e25d28481461081d578063e985e9c514610846578063f2fde38b146108835761021a565b8063a7cd52cb146106d2578063b1dc79091461070f578063b88d4fde14610738578063c668286214610761578063c87b56dd1461078c5761021a565b8063715018a6116100f2578063715018a6146106115780638da5cb5b146106285780639502743d1461065357806395d89b411461067e578063a22cb465146106a95761021a565b80635c975abb146105415780636352211e1461056c5780636c0360eb146105a957806370a08231146105d45761021a565b806323b872dd116101a657806342842e0e1161017557806342842e0e1461044c578063438b63001461047557806344a0d68a146104b25780634f6ccce7146104db57806355f804b3146105185761021a565b806323b872dd146103c05780632f745c59146103e95780633ccfd60b1461042657806340c10f19146104305761021a565b8063088a4ed0116101ed578063088a4ed0146102ed578063095ea7b31461031657806313faede61461033f57806318160ddd1461036a578063239c70ae146103955761021a565b806301ffc9a71461021f57806302329a291461025c57806306fdde0314610285578063081812fc146102b0575b600080fd5b34801561022b57600080fd5b50610246600480360381019061024191906135a8565b6108ac565b6040516102539190614142565b60405180910390f35b34801561026857600080fd5b50610283600480360381019061027e919061357f565b610926565b005b34801561029157600080fd5b5061029a6109bf565b6040516102a7919061415d565b60405180910390f35b3480156102bc57600080fd5b506102d760048036038101906102d2919061363b565b610a51565b6040516102e491906140b9565b60405180910390f35b3480156102f957600080fd5b50610314600480360381019061030f919061363b565b610ad6565b005b34801561032257600080fd5b5061033d60048036038101906103389190613502565b610b5c565b005b34801561034b57600080fd5b50610354610c74565b604051610361919061447f565b60405180910390f35b34801561037657600080fd5b5061037f610c7a565b60405161038c919061447f565b60405180910390f35b3480156103a157600080fd5b506103aa610c87565b6040516103b7919061447f565b60405180910390f35b3480156103cc57600080fd5b506103e760048036038101906103e291906133fc565b610c8d565b005b3480156103f557600080fd5b50610410600480360381019061040b9190613502565b610ced565b60405161041d919061447f565b60405180910390f35b61042e610d92565b005b61044a60048036038101906104459190613502565b610ebd565b005b34801561045857600080fd5b50610473600480360381019061046e91906133fc565b611111565b005b34801561048157600080fd5b5061049c60048036038101906104979190613397565b611131565b6040516104a99190614120565b60405180910390f35b3480156104be57600080fd5b506104d960048036038101906104d4919061363b565b61122b565b005b3480156104e757600080fd5b5061050260048036038101906104fd919061363b565b6112b1565b60405161050f919061447f565b60405180910390f35b34801561052457600080fd5b5061053f600480360381019061053a91906135fa565b611348565b005b34801561054d57600080fd5b506105566113de565b6040516105639190614142565b60405180910390f35b34801561057857600080fd5b50610593600480360381019061058e919061363b565b6113f1565b6040516105a091906140b9565b60405180910390f35b3480156105b557600080fd5b506105be6114a3565b6040516105cb919061415d565b60405180910390f35b3480156105e057600080fd5b506105fb60048036038101906105f69190613397565b611531565b604051610608919061447f565b60405180910390f35b34801561061d57600080fd5b506106266115e9565b005b34801561063457600080fd5b5061063d611671565b60405161064a91906140b9565b60405180910390f35b34801561065f57600080fd5b5061066861169b565b604051610675919061415d565b60405180910390f35b34801561068a57600080fd5b50610693611729565b6040516106a0919061415d565b60405180910390f35b3480156106b557600080fd5b506106d060048036038101906106cb91906134c6565b6117bb565b005b3480156106de57600080fd5b506106f960048036038101906106f49190613397565b61193c565b6040516107069190614142565b60405180910390f35b34801561071b57600080fd5b506107366004803603810190610731919061353e565b61195c565b005b34801561074457600080fd5b5061075f600480360381019061075a919061344b565b611a93565b005b34801561076d57600080fd5b50610776611af5565b604051610783919061415d565b60405180910390f35b34801561079857600080fd5b506107b360048036038101906107ae919061363b565b611b83565b6040516107c0919061415d565b60405180910390f35b3480156107d557600080fd5b506107de611c30565b6040516107eb919061447f565b60405180910390f35b34801561080057600080fd5b5061081b600480360381019061081691906135fa565b611c36565b005b34801561082957600080fd5b50610844600480360381019061083f919061353e565b611ccc565b005b34801561085257600080fd5b5061086d600480360381019061086891906133c0565b611e03565b60405161087a9190614142565b60405180910390f35b34801561088f57600080fd5b506108aa60048036038101906108a59190613397565b611e97565b005b60007f780e9d63000000000000000000000000000000000000000000000000000000007bffffffffffffffffffffffffffffffffffffffffffffffffffffffff1916827bffffffffffffffffffffffffffffffffffffffffffffffffffffffff1916148061091f575061091e82611fa7565b5b9050919050565b61092e612089565b73ffffffffffffffffffffffffffffffffffffffff1661094c611671565b73ffffffffffffffffffffffffffffffffffffffff16146109a2576040517f08c379a00000000000000000000000000000000000000000000000000000000081526004016109999061433f565b60405180910390fd5b80601160006101000a81548160ff02191690831515021790555050565b6060600080546109ce906147be565b80601f01602080910402602001604051908101604052809291908181526020018280546109fa906147be565b8015610a475780601f10610a1c57610100808354040283529160200191610a47565b820191906000526020600020905b815481529060010190602001808311610a2a57829003601f168201915b5050505050905090565b6000610a5c82612091565b610a9b576040517f08c379a0000000000000000000000000000000000000000000000000000000008152600401610a929061431f565b60405180910390fd5b6004600083815260200190815260200160002060009054906101000a900473ffffffffffffffffffffffffffffffffffffffff169050919050565b610ade612089565b73ffffffffffffffffffffffffffffffffffffffff16610afc611671565b73ffffffffffffffffffffffffffffffffffffffff1614610b52576040517f08c379a0000000000000000000000000000000000000000000000000000000008152600401610b499061433f565b60405180910390fd5b8060108190555050565b6000610b67826113f1565b90508073ffffffffffffffffffffffffffffffffffffffff168373ffffffffffffffffffffffffffffffffffffffff161415610bd8576040517f08c379a0000000000000000000000000000000000000000000000000000000008152600401610bcf906143bf565b60405180910390fd5b8073ffffffffffffffffffffffffffffffffffffffff16610bf7612089565b73ffffffffffffffffffffffffffffffffffffffff161480610c265750610c2581610c20612089565b611e03565b5b610c65576040517f08c379a0000000000000000000000000000000000000000000000000000000008152600401610c5c9061427f565b60405180910390fd5b610c6f83836120fd565b505050565b600e5481565b6000600880549050905090565b60105481565b610c9e610c98612089565b826121b6565b610cdd576040517f08c379a0000000000000000000000000000000000000000000000000000000008152600401610cd49061441f565b60405180910390fd5b610ce8838383612294565b505050565b6000610cf883611531565b8210610d39576040517f08c379a0000000000000000000000000000000000000000000000000000000008152600401610d309061417f565b60405180910390fd5b600660008473ffffffffffffffffffffffffffffffffffffffff1673ffffffffffffffffffffffffffffffffffffffff168152602001908152602001600020600083815260200190815260200160002054905092915050565b610d9a612089565b73ffffffffffffffffffffffffffffffffffffffff16610db8611671565b73ffffffffffffffffffffffffffffffffffffffff1614610e0e576040517f08c379a0000000000000000000000000000000000000000000000000000000008152600401610e059061433f565b60405180910390fd5b60003373ffffffffffffffffffffffffffffffffffffffff1647604051610e34906140a4565b60006040518083038185875af1925050503d8060008114610e71576040519150601f19603f3d011682016040523d82523d6000602084013e610e76565b606091505b5050905080610eba576040517f08c379a0000000000000000000000000000000000000000000000000000000008152600401610eb1906143ff565b60405180910390fd5b50565b6000610ec7610c7a565b9050601160009054906101000a900460ff1615610f19576040517f08c379a0000000000000000000000000000000000000000000000000000000008152600401610f109061445f565b60405180910390fd5b60008211610f5c576040517f08c379a0000000000000000000000000000000000000000000000000000000008152600401610f53906143df565b60405180910390fd5b601054821115610fa1576040517f08c379a0000000000000000000000000000000000000000000000000000000008152600401610f989061425f565b60405180910390fd5b600f548282610fb091906145f3565b1115610ff1576040517f08c379a0000000000000000000000000000000000000000000000000000000008152600401610fe8906142df565b60405180910390fd5b610ff9611671565b73ffffffffffffffffffffffffffffffffffffffff163373ffffffffffffffffffffffffffffffffffffffff16146110d55760011515601260003373ffffffffffffffffffffffffffffffffffffffff1673ffffffffffffffffffffffffffffffffffffffff16815260200190815260200160002060009054906101000a900460ff161515146110d45781600e54611091919061467a565b3410156110d3576040517f08c379a00000000000000000000000000000000000000000000000000000000081526004016110ca9061439f565b60405180910390fd5b5b5b6000600190505b82811161110b576110f88482846110f391906145f3565b6124f0565b8080611103906147f0565b9150506110dc565b50505050565b61112c83838360405180602001604052806000815250611a93565b505050565b6060600061113e83611531565b905060008167ffffffffffffffff811115611182577f4e487b7100000000000000000000000000000000000000000000000000000000600052604160045260246000fd5b6040519080825280602002602001820160405280156111b05781602001602082028036833780820191505090505b50905060005b82811015611220576111c88582610ced565b828281518110611201577f4e487b7100000000000000000000000000000000000000000000000000000000600052603260045260246000fd5b6020026020010181815250508080611218906147f0565b9150506111b6565b508092505050919050565b611233612089565b73ffffffffffffffffffffffffffffffffffffffff16611251611671565b73ffffffffffffffffffffffffffffffffffffffff16146112a7576040517f08c379a000000000000000000000000000000000000000000000000000000000815260040161129e9061433f565b60405180910390fd5b80600e8190555050565b60006112bb610c7a565b82106112fc576040517f08c379a00000000000000000000000000000000000000000000000000000000081526004016112f39061443f565b60405180910390fd5b60088281548110611336577f4e487b7100000000000000000000000000000000000000000000000000000000600052603260045260246000fd5b90600052602060002001549050919050565b611350612089565b73ffffffffffffffffffffffffffffffffffffffff1661136e611671565b73ffffffffffffffffffffffffffffffffffffffff16146113c4576040517f08c379a00000000000000000000000000000000000000000000000000000000081526004016113bb9061433f565b60405180910390fd5b80600b90805190602001906113da929190613125565b5050565b601160009054906101000a900460ff1681565b6000806002600084815260200190815260200160002060009054906101000a900473ffffffffffffffffffffffffffffffffffffffff169050600073ffffffffffffffffffffffffffffffffffffffff168173ffffffffffffffffffffffffffffffffffffffff16141561149a576040517f08c379a0000000000000000000000000000000000000000000000000000000008152600401611491906142bf565b60405180910390fd5b80915050919050565b600b80546114b0906147be565b80601f01602080910402602001604051908101604052809291908181526020018280546114dc906147be565b80156115295780601f106114fe57610100808354040283529160200191611529565b820191906000526020600020905b81548152906001019060200180831161150c57829003601f168201915b505050505081565b60008073ffffffffffffffffffffffffffffffffffffffff168273ffffffffffffffffffffffffffffffffffffffff1614156115a2576040517f08c379a00000000000000000000000000000000000000000000000000000000081526004016115999061429f565b60405180910390fd5b600360008373ffffffffffffffffffffffffffffffffffffffff1673ffffffffffffffffffffffffffffffffffffffff168152602001908152602001600020549050919050565b6115f1612089565b73ffffffffffffffffffffffffffffffffffffffff1661160f611671565b73ffffffffffffffffffffffffffffffffffffffff1614611665576040517f08c379a000000000000000000000000000000000000000000000000000000000815260040161165c9061433f565b60405180910390fd5b61166f600061250e565b565b6000600a60009054906101000a900473ffffffffffffffffffffffffffffffffffffffff16905090565b600d80546116a8906147be565b80601f01602080910402602001604051908101604052809291908181526020018280546116d4906147be565b80156117215780601f106116f657610100808354040283529160200191611721565b820191906000526020600020905b81548152906001019060200180831161170457829003601f168201915b505050505081565b606060018054611738906147be565b80601f0160208091040260200160405190810160405280929190818152602001828054611764906147be565b80156117b15780601f10611786576101008083540402835291602001916117b1565b820191906000526020600020905b81548152906001019060200180831161179457829003601f168201915b5050505050905090565b6117c3612089565b73ffffffffffffffffffffffffffffffffffffffff168273ffffffffffffffffffffffffffffffffffffffff161415611831576040517f08c379a00000000000000000000000000000000000000000000000000000000081526004016118289061421f565b60405180910390fd5b806005600061183e612089565b73ffffffffffffffffffffffffffffffffffffffff1673ffffffffffffffffffffffffffffffffffffffff16815260200190815260200160002060008473ffffffffffffffffffffffffffffffffffffffff1673ffffffffffffffffffffffffffffffffffffffff16815260200190815260200160002060006101000a81548160ff0219169083151502179055508173ffffffffffffffffffffffffffffffffffffffff166118eb612089565b73ffffffffffffffffffffffffffffffffffffffff167f17307eab39ab6107e8899845ad3d59bd9653f200f220920489ca2b5937696c31836040516119309190614142565b60405180910390a35050565b60126020528060005260406000206000915054906101000a900460ff1681565b611964612089565b73ffffffffffffffffffffffffffffffffffffffff16611982611671565b73ffffffffffffffffffffffffffffffffffffffff16146119d8576040517f08c379a00000000000000000000000000000000000000000000000000000000081526004016119cf9061433f565b60405180910390fd5b60005b8151811015611a8f57600160126000848481518110611a23577f4e487b7100000000000000000000000000000000000000000000000000000000600052603260045260246000fd5b602002602001015173ffffffffffffffffffffffffffffffffffffffff1673ffffffffffffffffffffffffffffffffffffffff16815260200190815260200160002060006101000a81548160ff0219169083151502179055508080611a87906147f0565b9150506119db565b5050565b611aa4611a9e612089565b836121b6565b611ae3576040517f08c379a0000000000000000000000000000000000000000000000000000000008152600401611ada9061441f565b60405180910390fd5b611aef848484846125d4565b50505050565b600c8054611b02906147be565b80601f0160208091040260200160405190810160405280929190818152602001828054611b2e906147be565b8015611b7b5780601f10611b5057610100808354040283529160200191611b7b565b820191906000526020600020905b815481529060010190602001808311611b5e57829003601f168201915b505050505081565b6060611b8e82612091565b611bcd576040517f08c379a0000000000000000000000000000000000000000000000000000000008152600401611bc49061437f565b60405180910390fd5b6000611bd7612630565b90506000815111611bf75760405180602001604052806000815250611c28565b80600d611c03856126c2565b600c604051602001611c189493929190614066565b6040516020818303038152906040525b915050919050565b600f5481565b611c3e612089565b73ffffffffffffffffffffffffffffffffffffffff16611c5c611671565b73ffffffffffffffffffffffffffffffffffffffff1614611cb2576040517f08c379a0000000000000000000000000000000000000000000000000000000008152600401611ca99061433f565b60405180910390fd5b80600c9080519060200190611cc8929190613125565b5050565b611cd4612089565b73ffffffffffffffffffffffffffffffffffffffff16611cf2611671565b73ffffffffffffffffffffffffffffffffffffffff1614611d48576040517f08c379a0000000000000000000000000000000000000000000000000000000008152600401611d3f9061433f565b60405180910390fd5b60005b8151811015611dff57600060126000848481518110611d93577f4e487b7100000000000000000000000000000000000000000000000000000000600052603260045260246000fd5b602002602001015173ffffffffffffffffffffffffffffffffffffffff1673ffffffffffffffffffffffffffffffffffffffff16815260200190815260200160002060006101000a81548160ff0219169083151502179055508080611df7906147f0565b915050611d4b565b5050565b6000600560008473ffffffffffffffffffffffffffffffffffffffff1673ffffffffffffffffffffffffffffffffffffffff16815260200190815260200160002060008373ffffffffffffffffffffffffffffffffffffffff1673ffffffffffffffffffffffffffffffffffffffff16815260200190815260200160002060009054906101000a900460ff16905092915050565b611e9f612089565b73ffffffffffffffffffffffffffffffffffffffff16611ebd611671565b73ffffffffffffffffffffffffffffffffffffffff1614611f13576040517f08c379a0000000000000000000000000000000000000000000000000000000008152600401611f0a9061433f565b60405180910390fd5b600073ffffffffffffffffffffffffffffffffffffffff168173ffffffffffffffffffffffffffffffffffffffff161415611f83576040517f08c379a0000000000000000000000000000000000000000000000000000000008152600401611f7a906141bf565b60405180910390fd5b611f8c8161250e565b50565b600080823b905060008111915050919050565b505050565b60007f80ac58cd000000000000000000000000000000000000000000000000000000007bffffffffffffffffffffffffffffffffffffffffffffffffffffffff1916827bffffffffffffffffffffffffffffffffffffffffffffffffffffffff1916148061207257507f5b5e139f000000000000000000000000000000000000000000000000000000007bffffffffffffffffffffffffffffffffffffffffffffffffffffffff1916827bffffffffffffffffffffffffffffffffffffffffffffffffffffffff1916145b8061208257506120818261286f565b5b9050919050565b600033905090565b60008073ffffffffffffffffffffffffffffffffffffffff166002600084815260200190815260200160002060009054906101000a900473ffffffffffffffffffffffffffffffffffffffff1673ffffffffffffffffffffffffffffffffffffffff1614159050919050565b816004600083815260200190815260200160002060006101000a81548173ffffffffffffffffffffffffffffffffffffffff021916908373ffffffffffffffffffffffffffffffffffffffff160217905550808273ffffffffffffffffffffffffffffffffffffffff16612170836113f1565b73ffffffffffffffffffffffffffffffffffffffff167f8c5be1e5ebec7d5bd14f71427d1e84f3dd0314c0f7b2291e5b200ac8c7c3b92560405160405180910390a45050565b60006121c182612091565b612200576040517f08c379a00000000000000000000000000000000000000000000000000000000081526004016121f79061423f565b60405180910390fd5b600061220b836113f1565b90508073ffffffffffffffffffffffffffffffffffffffff168473ffffffffffffffffffffffffffffffffffffffff16148061227a57508373ffffffffffffffffffffffffffffffffffffffff1661226284610a51565b73ffffffffffffffffffffffffffffffffffffffff16145b8061228b575061228a8185611e03565b5b91505092915050565b8273ffffffffffffffffffffffffffffffffffffffff166122b4826113f1565b73ffffffffffffffffffffffffffffffffffffffff161461230a576040517f08c379a00000000000000000000000000000000000000000000000000000000081526004016123019061435f565b60405180910390fd5b600073ffffffffffffffffffffffffffffffffffffffff168273ffffffffffffffffffffffffffffffffffffffff16141561237a576040517f08c379a0000000000000000000000000000000000000000000000000000000008152600401612371906141ff565b60405180910390fd5b6123858383836128d9565b6123906000826120fd565b6001600360008573ffffffffffffffffffffffffffffffffffffffff1673ffffffffffffffffffffffffffffffffffffffff16815260200190815260200160002060008282546123e091906146d4565b925050819055506001600360008473ffffffffffffffffffffffffffffffffffffffff1673ffffffffffffffffffffffffffffffffffffffff168152602001908152602001600020600082825461243791906145f3565b92505081905550816002600083815260200190815260200160002060006101000a81548173ffffffffffffffffffffffffffffffffffffffff021916908373ffffffffffffffffffffffffffffffffffffffff160217905550808273ffffffffffffffffffffffffffffffffffffffff168473ffffffffffffffffffffffffffffffffffffffff167fddf252ad1be2c89b69c2b068fc378daa952ba7f163c4a11628f55a4df523b3ef60405160405180910390a4505050565b61250a8282604051806020016040528060008152506129ed565b5050565b6000600a60009054906101000a900473ffffffffffffffffffffffffffffffffffffffff16905081600a60006101000a81548173ffffffffffffffffffffffffffffffffffffffff021916908373ffffffffffffffffffffffffffffffffffffffff1602179055508173ffffffffffffffffffffffffffffffffffffffff168173ffffffffffffffffffffffffffffffffffffffff167f8be0079c531659141344cd1fd0a4f28419497f9722a3daafe3b4186f6b6457e060405160405180910390a35050565b6125df848484612294565b6125eb84848484612a48565b61262a576040517f08c379a00000000000000000000000000000000000000000000000000000000081526004016126219061419f565b60405180910390fd5b50505050565b6060600b805461263f906147be565b80601f016020809104026020016040519081016040528092919081815260200182805461266b906147be565b80156126b85780601f1061268d576101008083540402835291602001916126b8565b820191906000526020600020905b81548152906001019060200180831161269b57829003601f168201915b5050505050905090565b6060600082141561270a576040518060400160405280600181526020017f3000000000000000000000000000000000000000000000000000000000000000815250905061286a565b600082905060005b6000821461273c578080612725906147f0565b915050600a826127359190614649565b9150612712565b60008167ffffffffffffffff81111561277e577f4e487b7100000000000000000000000000000000000000000000000000000000600052604160045260246000fd5b6040519080825280601f01601f1916602001820160405280156127b05781602001600182028036833780820191505090505b5090505b60008514612863576001826127c991906146d4565b9150600a856127d89190614839565b60306127e491906145f3565b60f81b818381518110612820577f4e487b7100000000000000000000000000000000000000000000000000000000600052603260045260246000fd5b60200101907effffffffffffffffffffffffffffffffffffffffffffffffffffffffffffff1916908160001a905350600a8561285c9190614649565b94506127b4565b8093505050505b919050565b60007f01ffc9a7000000000000000000000000000000000000000000000000000000007bffffffffffffffffffffffffffffffffffffffffffffffffffffffff1916827bffffffffffffffffffffffffffffffffffffffffffffffffffffffff1916149050919050565b6128e4838383611fa2565b600073ffffffffffffffffffffffffffffffffffffffff168373ffffffffffffffffffffffffffffffffffffffff1614156129275761292281612bdf565b612966565b8173ffffffffffffffffffffffffffffffffffffffff168373ffffffffffffffffffffffffffffffffffffffff1614612965576129648382612c28565b5b5b600073ffffffffffffffffffffffffffffffffffffffff168273ffffffffffffffffffffffffffffffffffffffff1614156129a9576129a481612d95565b6129e8565b8273ffffffffffffffffffffffffffffffffffffffff168273ffffffffffffffffffffffffffffffffffffffff16146129e7576129e68282612ed8565b5b5b505050565b6129f78383612f57565b612a046000848484612a48565b612a43576040517f08c379a0000000000000000000000000000000000000000000000000000000008152600401612a3a9061419f565b60405180910390fd5b505050565b6000612a698473ffffffffffffffffffffffffffffffffffffffff16611f8f565b15612bd2578373ffffffffffffffffffffffffffffffffffffffff1663150b7a02612a92612089565b8786866040518563ffffffff1660e01b8152600401612ab494939291906140d4565b602060405180830381600087803b158015612ace57600080fd5b505af1925050508015612aff57506040513d601f19601f82011682018060405250810190612afc91906135d1565b60015b612b82573d8060008114612b2f576040519150601f19603f3d011682016040523d82523d6000602084013e612b34565b606091505b50600081511415612b7a576040517f08c379a0000000000000000000000000000000000000000000000000000000008152600401612b719061419f565b60405180910390fd5b805181602001fd5b63150b7a0260e01b7bffffffffffffffffffffffffffffffffffffffffffffffffffffffff1916817bffffffffffffffffffffffffffffffffffffffffffffffffffffffff191614915050612bd7565b600190505b949350505050565b6008805490506009600083815260200190815260200160002081905550600881908060018154018082558091505060019003906000526020600020016000909190919091505550565b60006001612c3584611531565b612c3f91906146d4565b9050600060076000848152602001908152602001600020549050818114612d24576000600660008673ffffffffffffffffffffffffffffffffffffffff1673ffffffffffffffffffffffffffffffffffffffff168152602001908152602001600020600084815260200190815260200160002054905080600660008773ffffffffffffffffffffffffffffffffffffffff1673ffffffffffffffffffffffffffffffffffffffff168152602001908152602001600020600084815260200190815260200160002081905550816007600083815260200190815260200160002081905550505b6007600084815260200190815260200160002060009055600660008573ffffffffffffffffffffffffffffffffffffffff1673ffffffffffffffffffffffffffffffffffffffff16815260200190815260200160002060008381526020019081526020016000206000905550505050565b60006001600880549050612da991906146d4565b9050600060096000848152602001908152602001600020549050600060088381548110612dff577f4e487b7100000000000000000000000000000000000000000000000000000000600052603260045260246000fd5b906000526020600020015490508060088381548110612e47577f4e487b7100000000000000000000000000000000000000000000000000000000600052603260045260246000fd5b906000526020600020018190555081600960008381526020019081526020016000208190555060096000858152602001908152602001600020600090556008805480612ebc577f4e487b7100000000000000000000000000000000000000000000000000000000600052603160045260246000fd5b6001900381819060005260206000200160009055905550505050565b6000612ee383611531565b905081600660008573ffffffffffffffffffffffffffffffffffffffff1673ffffffffffffffffffffffffffffffffffffffff168152602001908152602001600020600083815260200190815260200160002081905550806007600084815260200190815260200160002081905550505050565b600073ffffffffffffffffffffffffffffffffffffffff168273ffffffffffffffffffffffffffffffffffffffff161415612fc7576040517f08c379a0000000000000000000000000000000000000000000000000000000008152600401612fbe906142ff565b60405180910390fd5b612fd081612091565b15613010576040517f08c379a0000000000000000000000000000000000000000000000000000000008152600401613007906141df565b60405180910390fd5b61301c600083836128d9565b6001600360008473ffffffffffffffffffffffffffffffffffffffff1673ffffffffffffffffffffffffffffffffffffffff168152602001908152602001600020600082825461306c91906145f3565b92505081905550816002600083815260200190815260200160002060006101000a81548173ffffffffffffffffffffffffffffffffffffffff021916908373ffffffffffffffffffffffffffffffffffffffff160217905550808273ffffffffffffffffffffffffffffffffffffffff16600073ffffffffffffffffffffffffffffffffffffffff167fddf252ad1be2c89b69c2b068fc378daa952ba7f163c4a11628f55a4df523b3ef60405160405180910390a45050565b828054613131906147be565b90600052602060002090601f016020900481019282613153576000855561319a565b82601f1061316c57805160ff191683800117855561319a565b8280016001018555821561319a579182015b8281111561319957825182559160200191906001019061317e565b5b5090506131a791906131ab565b5090565b5b808211156131c45760008160009055506001016131ac565b5090565b60006131db6131d6846144cb565b61449a565b905080838252602082019050828560208602820111156131fa57600080fd5b60005b8581101561322a578161321088826132b0565b8452602084019350602083019250506001810190506131fd565b5050509392505050565b6000613247613242846144f7565b61449a565b90508281526020810184848401111561325f57600080fd5b61326a84828561477c565b509392505050565b600061328561328084614527565b61449a565b90508281526020810184848401111561329d57600080fd5b6132a884828561477c565b509392505050565b6000813590506132bf81614937565b92915050565b600082601f8301126132d657600080fd5b81356132e68482602086016131c8565b91505092915050565b6000813590506132fe8161494e565b92915050565b60008135905061331381614965565b92915050565b60008151905061332881614965565b92915050565b600082601f83011261333f57600080fd5b813561334f848260208601613234565b91505092915050565b600082601f83011261336957600080fd5b8135613379848260208601613272565b91505092915050565b6000813590506133918161497c565b92915050565b6000602082840312156133a957600080fd5b60006133b7848285016132b0565b91505092915050565b600080604083850312156133d357600080fd5b60006133e1858286016132b0565b92505060206133f2858286016132b0565b9150509250929050565b60008060006060848603121561341157600080fd5b600061341f868287016132b0565b9350506020613430868287016132b0565b925050604061344186828701613382565b9150509250925092565b6000806000806080858703121561346157600080fd5b600061346f878288016132b0565b9450506020613480878288016132b0565b935050604061349187828801613382565b925050606085013567ffffffffffffffff8111156134ae57600080fd5b6134ba8782880161332e565b91505092959194509250565b600080604083850312156134d957600080fd5b60006134e7858286016132b0565b92505060206134f8858286016132ef565b9150509250929050565b6000806040838503121561351557600080fd5b6000613523858286016132b0565b925050602061353485828601613382565b9150509250929050565b60006020828403121561355057600080fd5b600082013567ffffffffffffffff81111561356a57600080fd5b613576848285016132c5565b91505092915050565b60006020828403121561359157600080fd5b600061359f848285016132ef565b91505092915050565b6000602082840312156135ba57600080fd5b60006135c884828501613304565b91505092915050565b6000602082840312156135e357600080fd5b60006135f184828501613319565b91505092915050565b60006020828403121561360c57600080fd5b600082013567ffffffffffffffff81111561362657600080fd5b61363284828501613358565b91505092915050565b60006020828403121561364d57600080fd5b600061365b84828501613382565b91505092915050565b60006136708383614048565b60208301905092915050565b61368581614708565b82525050565b60006136968261457c565b6136a081856145aa565b93506136ab83614557565b8060005b838110156136dc5781516136c38882613664565b97506136ce8361459d565b9250506001810190506136af565b5085935050505092915050565b6136f28161471a565b82525050565b600061370382614587565b61370d81856145bb565b935061371d81856020860161478b565b61372681614926565b840191505092915050565b600061373c82614592565b61374681856145d7565b935061375681856020860161478b565b61375f81614926565b840191505092915050565b600061377582614592565b61377f81856145e8565b935061378f81856020860161478b565b80840191505092915050565b600081546137a8816147be565b6137b281866145e8565b945060018216600081146137cd57600181146137de57613811565b60ff19831686528186019350613811565b6137e785614567565b60005b83811015613809578154818901526001820191506020810190506137ea565b838801955050505b50505092915050565b6000613827602b836145d7565b91507f455243373231456e756d657261626c653a206f776e657220696e646578206f7560008301527f74206f6620626f756e64730000000000000000000000000000000000000000006020830152604082019050919050565b600061388d6032836145d7565b91507f4552433732313a207472616e7366657220746f206e6f6e20455243373231526560008301527f63656976657220696d706c656d656e74657200000000000000000000000000006020830152604082019050919050565b60006138f36026836145d7565b91507f4f776e61626c653a206e6577206f776e657220697320746865207a65726f206160008301527f64647265737300000000000000000000000000000000000000000000000000006020830152604082019050919050565b6000613959601c836145d7565b91507f4552433732313a20746f6b656e20616c7265616479206d696e746564000000006000830152602082019050919050565b60006139996024836145d7565b91507f4552433732313a207472616e7366657220746f20746865207a65726f2061646460008301527f72657373000000000000000000000000000000000000000000000000000000006020830152604082019050919050565b60006139ff6019836145d7565b91507f4552433732313a20617070726f766520746f2063616c6c6572000000000000006000830152602082019050919050565b6000613a3f602c836145d7565b91507f4552433732313a206f70657261746f7220717565727920666f72206e6f6e657860008301527f697374656e7420746f6b656e00000000000000000000000000000000000000006020830152604082019050919050565b6000613aa5601f836145d7565b91507f43616e6e6f74206d696e74206d6f7265207468616e2035206174206f6e6365006000830152602082019050919050565b6000613ae56038836145d7565b91507f4552433732313a20617070726f76652063616c6c6572206973206e6f74206f7760008301527f6e6572206e6f7220617070726f76656420666f7220616c6c00000000000000006020830152604082019050919050565b6000613b4b602a836145d7565b91507f4552433732313a2062616c616e636520717565727920666f7220746865207a6560008301527f726f2061646472657373000000000000000000000000000000000000000000006020830152604082019050919050565b6000613bb16029836145d7565b91507f4552433732313a206f776e657220717565727920666f72206e6f6e657869737460008301527f656e7420746f6b656e00000000000000000000000000000000000000000000006020830152604082019050919050565b6000613c17601e836145d7565b91507f4d696e7420616d6f756e742065786365656473206d617820737570706c7900006000830152602082019050919050565b6000613c576020836145d7565b91507f4552433732313a206d696e7420746f20746865207a65726f20616464726573736000830152602082019050919050565b6000613c97602c836145d7565b91507f4552433732313a20617070726f76656420717565727920666f72206e6f6e657860008301527f697374656e7420746f6b656e00000000000000000000000000000000000000006020830152604082019050919050565b6000613cfd6020836145d7565b91507f4f776e61626c653a2063616c6c6572206973206e6f7420746865206f776e65726000830152602082019050919050565b6000613d3d6029836145d7565b91507f4552433732313a207472616e73666572206f6620746f6b656e2074686174206960008301527f73206e6f74206f776e00000000000000000000000000000000000000000000006020830152604082019050919050565b6000613da3602f836145d7565b91507f4552433732314d657461646174613a2055524920717565727920666f72206e6f60008301527f6e6578697374656e7420746f6b656e00000000000000000000000000000000006020830152604082019050919050565b6000613e096013836145d7565b91507f4e6f7420656e6f756768204554482073656e74000000000000000000000000006000830152602082019050919050565b6000613e496021836145d7565b91507f4552433732313a20617070726f76616c20746f2063757272656e74206f776e6560008301527f72000000000000000000000000000000000000000000000000000000000000006020830152604082019050919050565b6000613eaf6014836145d7565b91507f4d757374206d696e74206174206c6561737420310000000000000000000000006000830152602082019050919050565b6000613eef6000836145cc565b9150600082019050919050565b6000613f096010836145d7565b91507f5472616e73666572206661696c65642e000000000000000000000000000000006000830152602082019050919050565b6000613f496031836145d7565b91507f4552433732313a207472616e736665722063616c6c6572206973206e6f74206f60008301527f776e6572206e6f7220617070726f7665640000000000000000000000000000006020830152604082019050919050565b6000613faf602c836145d7565b91507f455243373231456e756d657261626c653a20676c6f62616c20696e646578206f60008301527f7574206f6620626f756e647300000000000000000000000000000000000000006020830152604082019050919050565b60006140156012836145d7565b91507f436f6e74726163742069732070617573656400000000000000000000000000006000830152602082019050919050565b61405181614772565b82525050565b61406081614772565b82525050565b6000614072828761376a565b915061407e828661379b565b915061408a828561376a565b9150614096828461379b565b915081905095945050505050565b60006140af82613ee2565b9150819050919050565b60006020820190506140ce600083018461367c565b92915050565b60006080820190506140e9600083018761367c565b6140f6602083018661367c565b6141036040830185614057565b818103606083015261411581846136f8565b905095945050505050565b6000602082019050818103600083015261413a818461368b565b905092915050565b600060208201905061415760008301846136e9565b92915050565b600060208201905081810360008301526141778184613731565b905092915050565b600060208201905081810360008301526141988161381a565b9050919050565b600060208201905081810360008301526141b881613880565b9050919050565b600060208201905081810360008301526141d8816138e6565b9050919050565b600060208201905081810360008301526141f88161394c565b9050919050565b600060208201905081810360008301526142188161398c565b9050919050565b60006020820190508181036000830152614238816139f2565b9050919050565b6000602082019050818103600083015261425881613a32565b9050919050565b6000602082019050818103600083015261427881613a98565b9050919050565b6000602082019050818103600083015261429881613ad8565b9050919050565b600060208201905081810360008301526142b881613b3e565b9050919050565b600060208201905081810360008301526142d881613ba4565b9050919050565b600060208201905081810360008301526142f881613c0a565b9050919050565b6000602082019050818103600083015261431881613c4a565b9050919050565b6000602082019050818103600083015261433881613c8a565b9050919050565b6000602082019050818103600083015261435881613cf0565b9050919050565b6000602082019050818103600083015261437881613d30565b9050919050565b6000602082019050818103600083015261439881613d96565b9050919050565b600060208201905081810360008301526143b881613dfc565b9050919050565b600060208201905081810360008301526143d881613e3c565b9050919050565b600060208201905081810360008301526143f881613ea2565b9050919050565b6000602082019050818103600083015261441881613efc565b9050919050565b6000602082019050818103600083015261443881613f3c565b9050919050565b6000602082019050818103600083015261445881613fa2565b9050919050565b6000602082019050818103600083015261447881614008565b9050919050565b60006020820190506144946000830184614057565b92915050565b6000604051905081810181811067ffffffffffffffff821117156144c1576144c06148f7565b5b8060405250919050565b600067ffffffffffffffff8211156144e6576144e56148f7565b5b602082029050602081019050919050565b600067ffffffffffffffff821115614512576145116148f7565b5b601f19601f8301169050602081019050919050565b600067ffffffffffffffff821115614542576145416148f7565b5b601f19601f8301169050602081019050919050565b6000819050602082019050919050565b60008190508160005260206000209050919050565b600081519050919050565b600081519050919050565b600081519050919050565b6000602082019050919050565b600082825260208201905092915050565b600082825260208201905092915050565b600081905092915050565b600082825260208201905092915050565b600081905092915050565b60006145fe82614772565b915061460983614772565b9250827fffffffffffffffffffffffffffffffffffffffffffffffffffffffffffffffff0382111561463e5761463d61486a565b5b828201905092915050565b600061465482614772565b915061465f83614772565b92508261466f5761466e614899565b5b828204905092915050565b600061468582614772565b915061469083614772565b9250817fffffffffffffffffffffffffffffffffffffffffffffffffffffffffffffffff04831182151516156146c9576146c861486a565b5b828202905092915050565b60006146df82614772565b91506146ea83614772565b9250828210156146fd576146fc61486a565b5b828203905092915050565b600061471382614752565b9050919050565b60008115159050919050565b60007fffffffff0000000000000000000000000000000000000000000000000000000082169050919050565b600073ffffffffffffffffffffffffffffffffffffffff82169050919050565b6000819050919050565b82818337600083830152505050565b60005b838110156147a957808201518184015260208101905061478e565b838111156147b8576000848401525b50505050565b600060028204905060018216806147d657607f821691505b602082108114156147ea576147e96148c8565b5b50919050565b60006147fb82614772565b91507fffffffffffffffffffffffffffffffffffffffffffffffffffffffffffffffff82141561482e5761482d61486a565b5b600182019050919050565b600061484482614772565b915061484f83614772565b92508261485f5761485e614899565b5b828206905092915050565b7f4e487b7100000000000000000000000000000000000000000000000000000000600052601160045260246000fd5b7f4e487b7100000000000000000000000000000000000000000000000000000000600052601260045260246000fd5b7f4e487b7100000000000000000000000000000000000000000000000000000000600052602260045260246000fd5b7f4e487b7100000000000000000000000000000000000000000000000000000000600052604160045260246000fd5b6000601f19601f8301169050919050565b61494081614708565b811461494b57600080fd5b50565b6149578161471a565b811461496257600080fd5b50565b61496e81614726565b811461497957600080fd5b50565b61498581614772565b811461499057600080fd5b5056fea2646970667358221220f7dac9cd04e62de5636f2d2096d793f8ec481cebb05e8961e9b7882ef90b4f6564736f6c63430008000033",
  "immutableReferences": {},
  "source": "// SPDX-License-Identifier: GPL-3.0\n///@consensys SWC-103\npragma solidity ^0.8.0;\n\nimport \"@openzeppelin/contracts/token/ERC721/extensions/ERC721Enumerable.sol\";\nimport \"@openzeppelin/contracts/access/Ownable.sol\";\n\n/// @title RockstarsNFT smart contract\n/// @author zack wilder\n/// @notice You can use this contract to mint RockstarNFTs\n/// @dev Contract implements ERC721Enumerable which is the standard for NFTs. Also implements Ownable pattern which prevents unauthorized\ncontract RockstarsNFTDev is ERC721Enumerable, Ownable {\n  using Strings for uint256;\n\n  string public baseURI;\n  ///@dev used to build the metadata url websites like Opeansea.io use to find information about the NFT\n  string public baseExtension = \".json\";\n  string public metaDataFolder = \"metadata/\";\n\n  uint256 public cost = 1 ether;\n  uint256 public maxSupply = 10000;\n  uint256 public maxMintAmount = 5;\n\n  ///@dev allow contract to be paused\n  bool public paused = false;\n  ///@dev a mapping of addresses used for presales\n  mapping(address => bool) public allowlist;\n\n  constructor(\n    string memory _name,\n    string memory _symbol,\n    string memory _initBaseURI\n  ) ERC721(_name, _symbol) {\n    setBaseURI(_initBaseURI);\n    ///@dev mint 5 to owner\n    mint(msg.sender, 5);\n  }\n\n  // internal\n  ///@dev convenience function to return the baseURI\n  function _baseURI() internal view virtual override returns (string memory) {\n    return baseURI;\n  }\n\n  // public\n  // Use Modifiers Only for Validation\n  ///@dev mint function\n  function mint(address _to, uint256 _mintAmount) public payable {\n    uint256 supply = totalSupply();\n    require(!paused, \"Contract is paused\");\n    require(_mintAmount > 0, \"Must mint at least 1\");\n    require(_mintAmount <= maxMintAmount, \"Cannot mint more than 5 at once\");\n    require(supply + _mintAmount <= maxSupply, \"Mint amount exceeds max supply\");\n\n    //@consensys SWC-122\n    if (msg.sender != owner()) {\n        ///@consensys SWC-115\n        if(allowlist[msg.sender] != true) {\n          require(msg.value >= cost * _mintAmount, \"Not enough ETH sent\");\n        }\n    }\n\n    for (uint256 i = 1; i <= _mintAmount; i++) {\n    ///@dev ERC721 mint function\n      _safeMint(_to, supply + i);\n    }\n  }\n\n  ///@dev return all NFTs for a particular owner\n  function walletOfOwner(address _owner)\n    public\n    view\n    returns (uint256[] memory)\n  {\n    uint256 ownerTokenCount = balanceOf(_owner);\n    uint256[] memory tokenIds = new uint256[](ownerTokenCount);\n    for (uint256 i; i < ownerTokenCount; i++) {\n      tokenIds[i] = tokenOfOwnerByIndex(_owner, i);\n    }\n    return tokenIds;\n  }\n\n  ///@dev return the uri where the metadata for the NFT can be found\n  function tokenURI(uint256 tokenId)\n    public\n    view\n    virtual\n    override\n    returns (string memory)\n  {\n    require(\n      _exists(tokenId),\n      \"ERC721Metadata: URI query for nonexistent token\"\n    );\n\n    string memory currentBaseURI = _baseURI();\n    return bytes(currentBaseURI).length > 0\n        ? string(abi.encodePacked(currentBaseURI, metaDataFolder, tokenId.toString(), baseExtension))\n        : \"\";\n  }\n\n  ///@dev only contract owner can access the following functions\n\n  ///@dev set cost of contract in wei\n  function setCost(uint256 _newCost) public onlyOwner() {\n    cost = _newCost;\n  }\n\n  ///@dev change how many NFTs can be minted at a time\n  function setMaxMintAmount(uint256 _newMaxMintAmount) public onlyOwner() {\n    maxMintAmount = _newMaxMintAmount;\n  }\n\n  ///@dev change baseURI\n  function setBaseURI(string memory _newBaseURI) public onlyOwner {\n    baseURI = _newBaseURI;\n  }\n\n  ///@dev change base extension\n  function setBaseExtension(string memory _newBaseExtension) public onlyOwner {\n    baseExtension = _newBaseExtension;\n  }\n\n  ///@dev pause the contract\n  function pause(bool _state) public onlyOwner {\n    paused = _state;\n  }\n\n  ///@dev add user(s) to an allowlist that permits free minting\n  function allowlistUser(address[] memory _arr) public onlyOwner {\n    for (uint256 i; i < _arr.length; i++) {\n      allowlist[_arr[i]] = true;\n    }\n  }\n\n  ///@dev remove user(s) from an allowlist\n  function removeAllowlistUser(address[] memory _arr) public onlyOwner {\n    for (uint256 i; i < _arr.length; i++) {\n      allowlist[_arr[i]] = false;\n    }\n  }\n\n  ///@dev withdraw the value of the contract\n  function withdraw() public payable onlyOwner {\n    (bool success, ) = msg.sender.call{value: address(this).balance}(\"\");\n    require(success, \"Transfer failed.\");\n  }\n}\n",
  "sourcePath": "/Users/zackwilder/code/consensys/blockchain-developer-bootcamp-final-project/contracts/RockstarsNFTDev.sol",
  "compiler": {
    "name": "solc",
    "version": "0.8.0+commit.c7dfd78e.Emscripten.clang"
  },
  "schemaVersion": "3.4.3",
  "updatedAt": "2021-12-01T04:46:08.084Z",
  "devdoc": {
    "author": "zack wilder",
    "details": "Contract implements ERC721Enumerable which is the standard for NFTs. Also implements Ownable pattern which prevents unauthorized",
    "kind": "dev",
    "methods": {
      "allowlistUser(address[])": {
        "details": "add user(s) to an allowlist that permits free minting"
      },
      "approve(address,uint256)": {
        "details": "See {IERC721-approve}."
      },
      "balanceOf(address)": {
        "details": "See {IERC721-balanceOf}."
      },
      "getApproved(uint256)": {
        "details": "See {IERC721-getApproved}."
      },
      "isApprovedForAll(address,address)": {
        "details": "See {IERC721-isApprovedForAll}."
      },
      "mint(address,uint256)": {
        "details": "mint function"
      },
      "name()": {
        "details": "See {IERC721Metadata-name}."
      },
      "owner()": {
        "details": "Returns the address of the current owner."
      },
      "ownerOf(uint256)": {
        "details": "See {IERC721-ownerOf}."
      },
      "pause(bool)": {
        "details": "pause the contract"
      },
      "removeAllowlistUser(address[])": {
        "details": "remove user(s) from an allowlist"
      },
      "renounceOwnership()": {
        "details": "Leaves the contract without owner. It will not be possible to call `onlyOwner` functions anymore. Can only be called by the current owner. NOTE: Renouncing ownership will leave the contract without an owner, thereby removing any functionality that is only available to the owner."
      },
      "safeTransferFrom(address,address,uint256)": {
        "details": "See {IERC721-safeTransferFrom}."
      },
      "safeTransferFrom(address,address,uint256,bytes)": {
        "details": "See {IERC721-safeTransferFrom}."
      },
      "setApprovalForAll(address,bool)": {
        "details": "See {IERC721-setApprovalForAll}."
      },
      "setBaseExtension(string)": {
        "details": "change base extension"
      },
      "setBaseURI(string)": {
        "details": "change baseURI"
      },
      "setCost(uint256)": {
        "details": "set cost of contract in wei"
      },
      "setMaxMintAmount(uint256)": {
        "details": "change how many NFTs can be minted at a time"
      },
      "supportsInterface(bytes4)": {
        "details": "See {IERC165-supportsInterface}."
      },
      "symbol()": {
        "details": "See {IERC721Metadata-symbol}."
      },
      "tokenByIndex(uint256)": {
        "details": "See {IERC721Enumerable-tokenByIndex}."
      },
      "tokenOfOwnerByIndex(address,uint256)": {
        "details": "See {IERC721Enumerable-tokenOfOwnerByIndex}."
      },
      "tokenURI(uint256)": {
        "details": "return the uri where the metadata for the NFT can be found"
      },
      "totalSupply()": {
        "details": "See {IERC721Enumerable-totalSupply}."
      },
      "transferFrom(address,address,uint256)": {
        "details": "See {IERC721-transferFrom}."
      },
      "transferOwnership(address)": {
        "details": "Transfers ownership of the contract to a new account (`newOwner`). Can only be called by the current owner."
      },
      "walletOfOwner(address)": {
        "details": "return all NFTs for a particular owner"
      },
      "withdraw()": {
        "details": "withdraw the value of the contract"
      }
    },
    "stateVariables": {
      "allowlist": {
        "details": "a mapping of addresses used for presales"
      },
      "baseExtension": {
        "details": "used to build the metadata url websites like Opeansea.io use to find information about the NFT"
      },
      "paused": {
        "details": "allow contract to be paused"
      }
    },
    "title": "RockstarsNFT smart contract",
    "version": 1
  },
  "userdoc": {
    "kind": "user",
    "methods": {},
    "notice": "You can use this contract to mint RockstarNFTs",
    "version": 1
  }
}